:0400000007EF00F016
:0A0008004382EEED09F051EF0AF01B
:101000000000346E2BEF08F092806CEF08F09282B3
:101010006CEF08F092846CEF08F092866CEF08F0A9
:10102000928A6CEF08F096806CEF08F096826CEF75
:1010300008F096846CEF08F093846CEF08F09386C8
:101040006CEF08F093826CEF08F093886CEF08F077
:1010500093806CEF08F03450326E336A3350000ADC
:10106000D8B435EF08F06CEF08F03250000AD8B46D
:1010700004EF08F0010AD8B407EF08F0030AD8B467
:101080000AEF08F0010AD8B40DEF08F0070AD8B447
:1010900010EF08F0010AD8B413EF08F0030AD8B42F
:1010A00016EF08F0010AD8B419EF08F00F0AD8B407
:1010B0001CEF08F0010AD8B41FEF08F0030AD8B4F7
:1010C00022EF08F0010AD8B425EF08F0070AD8B4D7
:1010D00028EF08F06CEF08F01200286E97EF08F088
:1010E0009280D8EF08F09282D8EF08F09284D8EF7F
:1010F00008F09286D8EF08F0928AD8EF08F0968030
:10110000D8EF08F09682D8EF08F09684D8EF08F070
:101110009384D8EF08F09386D8EF08F09382D8EF45
:1011200008F09388D8EF08F09380D8EF08F02850A3
:10113000266E276A2750000AD8B4A1EF08F0D8EF2E
:1011400008F02650000AD8B470EF08F0010AD8B4AD
:1011500073EF08F0030AD8B476EF08F0010AD8B4A8
:1011600079EF08F0070AD8B47CEF08F0010AD8B488
:101170007FEF08F0030AD8B482EF08F0010AD8B470
:1011800085EF08F00F0AD8B488EF08F0010AD8B448
:101190008BEF08F0030AD8B48EEF08F0010AD8B438
:1011A00091EF08F0070AD8B494EF08F0D8EF08F0F0
:1011B00012003550D8A4DFEF08F0E1EF08F0E3EFBC
:1011C00008F029EF09F0C2903550D96EDA6A040EA2
:1011D000D926DF50366E364636463646C05036186B
:1011E000C70B3618C06E3550D96EDA6A050ED9268F
:1011F000DF50366EC0503618F80B3618C06E3550BA
:10120000D96EDA6A020ED926DF50366E3646364679
:10121000C2503618C30B3618C26E3550D96EDA6A12
:10122000020ED926DF5001EC08F09D8C9E9CF28EB8
:10123000F28C3550D96EDA6ADECF38F0DDCF39F076
:1012400035C032F0CAEC09F035C032F0A3EC09F039
:10125000C28012002650D8B430EF09F032EF09F006
:101260003AEF09F02750D8A438EF09F03AEF09F027
:101270003CEF09F072EF09F05AEF09F0C450C34493
:10128000E846030B286E296A2750D96EDA6A28C00F
:10129000DEFF29C0DDFF72EF09F0C450C350286E95
:1012A000296A2750D96EDA6A28C0DEFF29C0DDFF1F
:1012B00072EF09F02650D96EDA6A060ED926DFB22F
:1012C00064EF09F067EF09F0010E68EF09F0000E16
:1012D000000AD8B43EEF09F0010AD8B44DEF09F086
:1012E0003EEF09F012002A50D8B479EF09F07BEFF5
:1012F00009F083EF09F02C50D8A481EF09F083EFB7
:1013000009F085EF09F0A2EF09F02BC02DF02D4672
:101310002D46C2502D18C30B2D18C26E2B506DECEC
:1013200008F02AC026F0C0EC0AF0C2B29AEF09F029
:101330009CEF09F095EF09F02AC026F02CC027F0A9
:101340002AEC09F01200B1EF09F0C188C18AC9EF97
:1013500009F0C198C19AC9EF09F0C198C19AC9EFC3
:1013600009F03250D96EDA6A060ED926DFB0BBEF2B
:1013700009F0BEEF09F0010EBFEF09F0000E000A00
:10138000D8B4A9EF09F0010AD8B4A5EF09F0ADEF80
:1013900009F01200D5EF09F0C09EEDEF09F0C08E04
:1013A000EDEF09F0C08EEDEF09F03250D96EDA6A38
:1013B000060ED926DFB2DFEF09F0E2EF09F0010EE9
:1013C000E3EF09F0000E000AD8B4CCEF09F0010AEF
:1013D000D8B4CFEF09F0D2EF09F012000600FACF2F
:1013E0002EF0FBCF2FF0D9CF30F0DACF31F09DAC1B
:1013F000FCEF09F0FEEF09F007EF0AF09EAC03EFF7
:101400000AF005EF0AF007EF0AF089EC0AF031C0A4
:10141000DAFF30C0D9FF2FC0FBFF2EC0FAFF439286
:1014200011003A2A1F0E2A6E000E2B6E410E2C6EF2
:1014300073EC09F01F0E2A6E010E2B6E3F0E2C6E00
:1014400073EC09F01F0E2A6E020E2B6E3D0E2C6EF1
:1014500073EC09F01F0E2A6E030E2B6E3B0E2C6EE2
:1014600073EC09F01200CCEC0AF01F0E356E000E82
:10147000366E6EEC0AF01F0E356E010E366E6EEC97
:101480000AF01F0E356E020E366E6EEC0AF01F0E5D
:10149000356E030E366E6EEC0AF04DEF0AF007EF74
:1014A00000F0420EF66E150EF76E000EF86E00EEAE
:1014B00001F010EE25F00900F5CFEEFFE550E15008
:1014C000FAE100EE38F00B0EEE6AE806FDE143901B
:1014D0004392000EF86E000133EF0AF03550D8A4A5
:1014E00074EF0AF076EF0AF078EF0AF088EF0AF06E
:1014F00036C037F037463746C2503718C30B371857
:10150000C26E365001EC08F035C032F0B4EC0AF08F
:1015100012009E9C38503910D8B491EF0AF093EF26
:101520000AF0A0EF0AF002D8A0EF0AF00500FA6E68
:101530003850FD6E3950FE6EF850FF6EFA501200B2
:101540001200890F8A0F8B0F8C0F8D0F800F810F68
:10155000820F830F840F920F930F940F950F960FA6
:071560002214000006050241
:101568003250D8A4BAEF0AF0BCEF0AF0BEEF0AF086
:10157800BFEF0AF0C28212002650D8A4C6EF0AF0C4
:10158800C8EF0AF0CAEF0AF0CBEF0AF0C2821200E5
:0A1598001F0E356ED9EC08F01200AA
:020000040030CA
:02000400FF817A
:00000001FF
